:020000040800F2
:10000000100800207D020008F1260008A92500083C
:10001000ED26000871100008D92A00080000000031
:10002000000000000000000000000000F9260008A9
:100030007510000800000000F5260008FD260008E5
:10004000970200089702000897020008970200082C
:10005000970200089702000897020008970200081C
:10006000970200089702000897020008970200080C
:1000700097020008970200089702000897020008FC
:10008000970200089702000897020008000000008D
:1000900000000000000000000000000097020008BF
:1000A000B9270008C5270008970200089702000832
:1000B00097020008970200089702000897020008BC
:1000C00097020008970200089702000897020008AC
:1000D00097020008CD2A00089702000800000000DF
:1000E000970200089702000897020008000000002D
:1000F000000000000000000000000000970200085F
:10010000000000009702000897020008970200080C
:1001100000000000000000000000000000000000DF
:10012000970200089702000897020008970200084B
:10013000970200080000000000000000000000001E
:10014000000000000000000000000000970200080E
:10015000970200089702000897020008970200081B
:10016000970200089702000800000000000000004D
:10017000000000000000000000000000000000007F
:1001800000000000970200080000000000000000CE
:10019000970200089702000800F002F800F05FF8EC
:1001A00014A696E8000CB244B344DA4501D100F03D
:1001B00056F8BAE80F000FA696E83000A5EB040544
:1001C00004EB0607AAEB0704A7F101074FEA151590
:1001D0004FEA3414A4F10104AC4201D300F03FF81B
:1001E00013F0010F18BFFB1A43F0010300F001F8F0
:1001F000DBE718477029000090290000103A24BF5F
:1002000078C878C1FAD8520724BF30C830C144BF7B
:1002100004680C6070470000704700000023002451
:1002200000250026103A28BF78C1FBD8520728BF06
:1002300030C148BF0B607047642900F0F780002090
:1002400070471FB502F06EFC9DE8030000F0D8FC7B
:1002500000F0B2F91FBD10B500F017FA10BD00F0A4
:1002600047FA1146FFF7EDFF02F038FC00F03EFCC4
:1002700003B4FFF7F0FF03BC00F040FE09488047DD
:1002800009480047FEE7FEE7FEE7FEE7FEE7FEE778
:10029000FEE7FEE7FEE7FEE704480549054A064B90
:1002A00070470000A52700089901000810020020EF
:1002B00010080020100400201004002053EA020C53
:1002C00000F069802DE9F04B4FF00006002B1FBFB6
:1002D000B3FA83F503FA05F424FA05F65E4012BF7B
:1002E0001643B2FA82F502FA05F4C5F120051EBFE5
:1002F00022FA05FC44EA0C04203556EA044C4FEA85
:10030000144418BF641C4FF000084FF000099042DD
:1003100071EB030C39D3002919BFB1FA81F701FA47
:1003200007F6B0FA80F700FA07F6C7F120071EBFFC
:1003300020FA07FC46EA0C062037B6FBF4FCA7EBD4
:100340000507103F07F01F0BCBF120062CFA06F62D
:100350000CFA0BFB44BFB3460026202FA4BF5E4619
:100360004FF0000B5BEA060C08BF4FF0010B19EBD6
:100370000B0948EB0608ABFB027C06FB02CC0BFB2F
:1003800003CCC01B71EB0C01C1E70B460246414692
:100390004846BDE8F08B13B5084318BF4FF0FF3057
:1003A0000146AFF30080BDE81C4070470FB404491C
:1003B00010B503AA029800F0D1F810BC5DF814FB48
:1003C0006C0000202DE9F0410E460446002020621A
:1003D0002046E168884730B3252805D0D4E90121BB
:1003E0009047206A401CF2E7E168204600278847D2
:1003F000050018D0A5F14100192802D820354FF486
:1004000000673246294620462760FFF715FF40B1B6
:10041000012804D0F61D26F007060836D8E7361D59
:10042000D6E72846DAE7206ABDE8F0812DE9F041F9
:100430000646002410687529314616A510D0AFF382
:100440000080002802DA404213A507E031688A07DD
:1004500001D512A502E0490704D511A5012401E048
:10046000AFF3008000210A2206F1240709E0B0FB67
:10047000F2FCB0FBF2F302FB1C003030785418465B
:10048000491C0028F3D123462A463046BDE8F041F6
:1004900000F00BB8000000002D0000002B00000051
:1004A000200000007047704770472DE9F0470D4667
:1004B00099469246044600F124080168880604D54E
:1004C000E06921F01001216000E00120A84201DD77
:1004D000471B00E00027A1697A1902EB0900081AFE
:1004E000A0612078C00602D42046AFF30080002629
:1004F00008E0D4E901211AF806009047206A401C60
:10050000761C20624E45F4DB2078C0060AD52046D2
:10051000AFF3008006E0D4E9012130209047206A43
:10052000401C2062381EA7F10107F4DC07E0D4E983
:10053000012118F805009047206A401C2062281EFF
:10054000A5F10105F3DC2046AFF30080207800061A
:1005500002D50220BDE8F0870120FBE7074B70B50C
:100560000D467B4400F011F80446284600F020F8C0
:1005700010B14FF0FF3070BD204670BDA3250000C4
:1005800001694A1C02610878704700B58FB0CDE957
:1005900001310021059105497944CDE90310114647
:1005A0006846FFF70FFF0FB000BD0000E5FFFFFF3B
:1005B000007B00F08000704710B54248542100F0E5
:1005C000A5FA4148542100F0A1FA4048542100F016
:1005D0009DFA3F493B483C4A3F4B08603D490A6011
:1005E0003A491960531C0365481C106501200865D1
:1005F0003B48344A39A1784400F0DAF920B9384848
:1006000078440A3800F07BFA37482F4A35A17844FD
:1006100000F0CEF920B9344878440A3800F06FFA77
:1006200032482A4A2FA1784400F0C2F920B92F4855
:1006300078440A3800F063FA40232248DC000021A5
:10064000224600F092F920B125487844543800F051
:1006500056FA1D4822464023002100F086F920B1B9
:1006600021487844543800F04AFA184822461023AA
:10067000002100F07AF9002806D01C487844BDE833
:100680001040563800F03BBA10BD104870B5006DF0
:1006900020F001040B4800F003FA0B4800F000FAC8
:1006A0000A4800F0FDF909E0206D20F00105204620
:1006B00000F0F6F9204600F040F82C46002CF3D16B
:1006C00070BD0000180000206C000020C000002059
:1006D000000000200400002008000020720000003C
:1006E0004425000077000000302500001C25000094
:1006F000754600F065FAAE4605006946534620F09F
:100700000700854618B020B5FFF7C6FDBDE82040BC
:100710004FF000064FF000074FF000084FF0000BBD
:10072000AC46ACE8C009ACE8C009ACE8C009ACE82C
:10073000C00921F007018D46704770B50446051FBA
:1007400000F042FA0068002C14BF446870BD002C11
:1007500018BFAC423CBF20466468F8D301680A1851
:10076000AA4218BF456003D12A68054611440160BA
:1007700028684119A1421CBF6C6070BD6168696046
:1007800021680844286070BD2DE9F05F05461746D2
:100790000C46C86820F4201040F48000C860800631
:1007A00002D5084600F069FBE06841F282014FF093
:1007B000FF3A0140022903D0204600F0FBFAB9E0DD
:1007C00000F42041B1F5004F0FD1C00306D5616898
:1007D000E06A884200D80846606006E02069E0626E
:1007E0006060606900F0E6F9A061A0680022EEB2E6
:1007F00000280DDAE1688B050AD4C043A06041F4FB
:1008000090302260E0606068411C61600670AAE080
:10081000E0689146226040F40050E060206978BBB7
:10082000606900F0B9F904F124054FF00108A8B19E
:10083000A08910F4407F08D0E06900F010FA206130
:1008400018B1E06840F4006017E0C4F81C8025612E
:10085000E06820F4407040F480600EE0E06900F051
:10086000FEF900282061F0D0E06840F4006010F448
:10087000407FE06002D140F48070E06020696060F9
:10088000E06825696FF0010BC1051ED56168E06A5B
:10089000884200D80846411B04D02246284600F072
:1008A00093FAE8BB1FB1E562C4E9015959E0681C3D
:1008B000E0626060E069401EA060E06840F4803063
:1008C000E06030462E70BDE8F09F17B100F4803232
:1008D0000AE06068411C61600670E0680A2E40F41E
:1008E0008030E06006D00022E16A6068814203D96E
:1008F0000B4602E00122F7E70346B4F80CC05B1B8D
:100900005FEA4C5C04D4D4F81CC09C4500DD02B303
:10091000814200D80146002BA1EB0008E56200E00F
:1009200008E0C4E9015907DD22461946284600F0CF
:100930004BFA08B15046C6E7B8F1000F09D0A169DB
:10094000E5626560A1EB0800A061E06840F010007E
:10095000E06047B16168A069E562491B08446560D1
:10096000A0615846AFE73046ADE770B5C468A5074B
:1009700013D0650211D4B2F5807F09D0B2F5007FA3
:1009800006D0B2F5806F08D1012300F1240106E002
:100990005D1E6FF07F46B54201D3012070BD01613D
:1009A000C361416024F470611143C160002070BDD7
:1009B0002DE9F0410C461646070047D0104600F0DE
:1009C0006FF82078611C61280AD0722802D077283D
:1009D0003CD102E00125002405E00225042402E0C8
:1009E000082448F2020511F8010B2B2806D06228D2
:1009F00009D011F8010C74280AD00BE045F003056A
:100A000044F00204EFE745F0040544F00104EAE78E
:100A100044F010043846214600F09FF8411C15D0E0
:100A20000021316171604FF40071F560F161706116
:100A3000200704D530460222002100F03FF9306D36
:100A400040F0010030653046BDE8F0810020FBE752
:100A50002DE9F0410D460646104C206DC10704D02B
:100A6000410804D020F00104F7E722460EE05420AC
:100A700000F0F5F807000ED0206D47F001010843A3
:100A800054212065384600F041F83A462946304660
:100A9000BDE8F0418CE70020D6E7000018000020F8
:100AA0002DE9F04704464FF0FF380026C568D4E929
:100AB0000497A80718D0204600F0BCF9384600F08B
:100AC00056F8002800DA4646280502D54846FFF7C2
:100AD00034FE4C21204600F019F8206D20F0010072
:100AE00020653046BDE8F0874046FBE710B5044678
:100AF000AFF300802046BDE81040FFF7B9BB10B54A
:100B000000F0E2F9BDE8104000F0D8B94FF0000263
:100B100000B5134694469646203922BFA0E80C50F3
:100B2000A0E80C50B1F12001BFF4F7AF090728BFCE
:100B3000A0E80C5048BF0CC05DF804EB890028BF4A
:100B400040F8042B08BF704748BF20F8022B11F073
:100B5000804F18BF00F8012B70470EB5CDE900019A
:100B600000F034FA029069460120ABBE0EBD08B514
:100B7000694600900220ABBE08BD1FB58DE8070096
:100B800069460520ABBE04B010BD1FB58DE80F004F
:100B900069460620ABBEF6E708B569460090092015
:100BA000ABBE08BD1CB5CDE9000169460A20ABBE4D
:100BB0001CBD704708B5694600900C20ABBE08BD4F
:100BC0000048704714010020004870471C010020B5
:100BD000704770477047704738B504460A46002092
:100BE0006946AFF30080002808BF38BD024600996F
:100BF000204600F090F9012038BD012000F0DFB957
:100C0000F8B5AFF30080054600200C460C2000BF6D
:100C10000646A819A0420DD9324669460020AFF316
:100C20000080070008BF00F0CAF90098A04218BF72
:100C30000546C419FFF7C8FF05600746F01D20F000
:100C400007004619284600F060F9B44208BFF8BD15
:100C5000A21B31463868BDE8F84000F05CB970B5B9
:100C60000646FFF7B1FF056806F10B0020F0070408
:100C7000B4429CBF002070BD2B466A68BAB11068B0
:100C8000A04210D304F1080188423CBF506858606C
:100C900007D35168101941601168091B0160586041
:100CA0001460101D70BD13465268002AE7D121461A
:100CB0002846FFF791FF0028DED170BD2DE9F041F5
:100CC000044616460D464769007B80072ED03846FD
:100CD000FFF762FF50BB3EB3012E02D0022E25D19A
:100CE00004E0204600F031F905441DE03846FFF7E6
:100CF00061FFE168002841F01001E16005DA20465B
:100D000000F058F80120BDE8F081C9030BD56268F6
:100D1000E16A914200D81146A26911442269891AF8
:100D2000814200DD08460544002D01DA0220EAE791
:100D3000E16A6068E268814206D29103E06203D50D
:100D400022F4003141F01002A6690027AE4213DC04
:100D5000E16A814201D90B4600E0034603EB060C31
:100D60002369ACEB030CAC4506DD814201D98C460E
:100D700000E084469C4505D1A760276042F0200032
:100D8000A5620DE0AD1BE669AE1B8142A66000D9ED
:100D90000846C01A281A20605819606022F0200006
:100DA00003490840E060002084F84870ABE7000089
:100DB000BFCFD7FFC16821F4001141F08001C160AD
:100DC00000218160016070472DE9F74F15460C4600
:100DD0004FF0FF3B3848D768D2F814A0074209D03B
:100DE0005046A969FFF7DEFE002819DB3248C043F0
:100DF0000740EF604FF000496FF000484C4501D3C9
:100E0000464600E0264600993B4650463246FFF7EC
:100E1000B4FEA96920F00042B21A1144A96128B1B8
:100E20002846FFF7C7FF5846BDE8FE8FA41BE5D153
:100E30000020F9E770B504460569C06A6168884218
:100E400000D80846E16821F42011E160C90312D5F9
:100E5000A84208D02246411B2846FFF7B5FF10B133
:100E60004FF0FF3070BD0020E562C4E90150E0683A
:100E700020F48030E060002070BD10B50446C068EA
:100E800020F02000E060A16AA06988420DD02046D1
:100E9000FFF7D0FFE06820F4405040F01000E06021
:100EA000A06AA0612069E062606044F24001E068ED
:100EB0008843E06010BD000010000200002801D04F
:100EC00000F01CB87047000010B5014602A000F009
:100ED0005DF8012010BD000053494752545245446B
:100EE0003A2052656469726563743A2063616E27C3
:100EF00074206F70656E3A200000000001491820D0
:100F0000ABBEFEE726000200704700210160416091
:100F100070470C207047034640688C46002818BF75
:100F200088423CBF03464068F8D31868184488429A
:100F300007D00CF1030020F00700001D411A521ADF
:100F40000146081D0A60FFF7F8BB10B50146C268EC
:100F5000900703D0900607D5886A0AE000F05CF895
:100F600001210160881E10BD8B69486818440B6917
:100F7000C01A91F848301BB191F84910401A10BDC1
:100F80001103FCD50028FADD401E10BD70B50546E2
:100F90000C460A2000E06D1C00F037F835B12878C7
:100FA0000028F8D102E0641C00F02FF814B120787A
:100FB0000028F8D1BDE870400A2000F026B810B52E
:100FC00000F02EF8BDE81040FFF778BF10B5431CC5
:100FD00002E010F8011B71B18107FAD14FF0013224
:100FE00002C88C1A8C4314EAC211F9D0C01A0A063E
:100FF00003D0C01E10BDC01A10BD0A0401D0801E4F
:1010000010BD0902FCD0401E10BD08B569468DF820
:1010100000000320ABBE08BD00487047140100204B
:1010200010B5012805D0002103A0FFF7AFFF012074
:1010300010BD09A1F8E7000053494752544D454DF2
:101040003A204F7574206F662068656170206D6569
:101050006D6F7279000000003A2048656170206D64
:10106000656D6F727920636F72727570746564005C
:10107000FEE700007047000072B600BFFEE7000008
:1010800070B5866D044600F02BF994F835100229EE
:1010900028D105462068216C026822F01602026001
:1010A000426922F08002426109B9A16C19B101685C
:1010B00021F008010160016821F00101016000BF19
:1010C00020680068C00715D000F00AF9401B062808
:1010D000F6D320206065032084F83500002184F8D1
:1010E000341070BD802060650120002184F8341028
:1010F00070BD00BFE06D3F2101FA00F0B06001203B
:1011000084F835000020002184F8341070BD000000
:1011100090F83510022909D1052180F835100068B2
:10112000016821F0010101600020704780214165C4
:10113000012070472DE9F04F82B000F13E4707F1E2
:10114000FF77860546EA972741F20006C4F20206B9
:10115000072243F6004EB04208BF0422C4F2010E3B
:10116000042F38BF3A46002600274FF000080092AF
:1011700009E000BF08F101080237B8F1100F06F1CD
:10118000040600F0A3800D68012202FA08F415EAB3
:101190000409EFD0D1F804B003220BF0030CACF13A
:1011A0000105BA40012D6FEA020A0FD88268CD68A6
:1011B00002EA0A02BD402A4382604268A243CBF39E
:1011C000001404FA08F42243426005E0BCF1030F66
:1011D00002D14FF0030C1EE0C2688C6802EA0A02DA
:1011E000BC402243BCF1020FC26014D16FF0030275
:1011F00002EA58020244D2F820C006F01C040F2371
:101200000D69A3402CEA0303A5402B431362D1F8D8
:1012100004B00BF0030C02680CFA07F302EA0A02AE
:101220001A431BF4403F0260A4D0002243F644035B
:101230000192C4F202031A684FF6084C42F480424D
:101240001A601A68CFF6FF7C02F480420192019A7C
:1012500028F00302724452F80C3006F00C050F24FB
:10126000AC40A343009C04FA05F52B4342F80C3034
:10127000DEF808204B6842EA090543F60C4CDC0214
:1012800058BF22EA0905CEF80850C4F2010CDCF878
:1012900000209C0242EA090558BF22EA0905CCF861
:1012A0000050DEF804209C0342EA090558BF22EAF8
:1012B0000905CEF80450DEF80020DB0342EA0905F8
:1012C00058BF22EA0905CEF8005053E702B0BDE846
:1012D000F08F0000002A08BF0904816170470000F8
:1012E00040F20820C2F200000068704740F20C0093
:1012F00040F20821C2F20000C2F2000100780A6840
:10130000104408607047000080B543F60040C4F206
:101310000200016841F400710160016841F48061DC
:101320000160016841F480710160032000F086F8DB
:101330000F2000F005F800F027F8002080BD000025
:1013400070B540F20C06C2F2000640F21401327889
:10135000C2F200014FF47A730968B3FBF2F204465B
:10136000B1FBF2F1084600F061FB0F2C4FF00105D4
:1013700008D838B94FF0FF3021460022002500F090
:1013800031F87460284670BD82B0002043F64001F9
:101390000190C4F202014A6842F480424A604A68FD
:1013A00002F480420192019A0090086840F0805057
:1013B0000860086800F080500090009802B0704704
:1013C000002848BF704700F01F01012202FA01F116
:1013D0001C2202EAD0004EF20012CEF2000281502E
:1013E0007047000010B54EF60C5CCEF2000CDCF835
:1013F0000030C3F3022E8EF00704042C28BF04240F
:10140000BEF103034FF0FF3E0EFA04F438BF002391
:10141000A14399400EFA03F39A43114300F00F02DF
:1014200000F160430901043A03F564436244002873
:1014300048BF02F10C03197010BD00004EF60C51AC
:10144000CEF200010A684FF6FF031A4060F30A2249
:1014500042F0806040F0FD7008607047002804BFD3
:10146000012070472DE9F04143F60808C4F2020854
:101470000446D8F8F8030D4600F00700884207D26A
:1014800088F8F853D8F8F80300F00700A84277D19D
:101490002068810717D5410705D5D8F8001041F419
:1014A000E051C8F80010010705D5D8F8001041F444
:1014B0006041C8F80010D8F80010A26821F0F001CF
:1014C0001143C8F80010C00740D1D8F8F80300F065
:1014D0000700A84207D988F8F853D8F8F80300F0B5
:1014E0000700A8424CD12068410707D5D8F8001062
:1014F000E26821F4E0511143C8F80010000708D554
:10150000D8F80000216920F4604040EAC100C8F822
:10151000000000F07DF8D8F8001042F64A32C1F31E
:101520000311C0F60002515C40F2140220FA01F1EE
:1015300040F21000C2F200000068C2F20002116026
:10154000FFF7FEFE0020BDE8F08100BF6068811E4D
:10155000022907D258F8081C89015CBF0120BDE8A8
:10156000F08111E0012807D158F8081C89035CBFFD
:101570000120BDE8F08107E058F8081C890703D472
:101580000120BDE8F08100BFD8F8001021F0030170
:101590000843C8F80000FFF7A3FE064641F288376B
:1015A000D8F80000616800F00C00B0EB810F8CD01F
:1015B000FFF796FE801BB842F2D90320BDE8F08108
:1015C00040F2140043F60801C2F20000C4F2020126
:1015D0000068096842F65A32C1F38221C0F600025F
:1015E000515CC8407047000040F2140043F6080107
:1015F000C2F20000C4F202010068096842F65A32E1
:10160000C1F34231C0F60002515CC840704700008F
:1016100010B543F60404C4F20204606800F00C0044
:1016200008280BD0042819BF42F20040C0F2F40091
:1016300047F64000C0F27D1010BD00BF2068216851
:101640002368490247F64001C0F27D1100F03F02D5
:10165000C3F388105CBF42F20041C0F2F401A1FB69
:1016600000010023FEF72AFE21680222C1F3014196
:1016700002EB4101B0FBF1F010BD0000002804BFF7
:10168000012070472DE9F04182B00446007843F60E
:101690000006C007C4F202060CD0B06800F00C00CF
:1016A000042840F081803068800303D560680028FA
:1016B00000F06A81207880071BD5B06810F00C0F0D
:1016C00009D0B06800F00C00082840F087807068EE
:1016D000400200F183803068800703D5E06801286C
:1016E00040F052813068216920F0F80040EAC100E2
:1016F00030602078000713D4207840072AD4A569E9
:10170000002D00F03C81B06800F00C00082840F08B
:10171000A180012D40F01081012002B0BDE8F081D0
:101720006069002840F20000C4F2472000F07E808B
:101730000121C0F8801EFFF7D3FD0546706F8007BA
:10174000DAD4FFF7CDFD401B0228F7D9032002B001
:10175000BDE8F081306C5FEAC0080AD40020019037
:10176000306C40F080503064306C00F0805001905C
:10177000019847F20007C4F200073868C00547D453
:10178000386840F480703860FFF7AAFD054600BF56
:101790003868C0053CD4FFF7A3FD401B0228F7D9E9
:1017A000032002B0BDE8F081B06800F00C0008280A
:1017B00003D1706840023FF576AF6068B0F5803FB6
:1017C00007D0B0F5A02F40F09B80306840F4802017
:1017D0003060306840F4803030609BE0E068002882
:1017E0005CD00020C4F2472001210160FFF778FDA2
:1017F000054600BF306880073FF574AFFFF770FD06
:10180000401B0228F6D9032002B0BDE8F08100BFDA
:10181000A068012805D0052854D1306F40F004009D
:101820003067306F40F00100306755E00021C0F8AC
:10183000801EFFF755FD0546706F80077FF55CAF92
:10184000FFF74EFD401B0228F6D9032002B0BDE889
:10185000F08100BF0027C4F2472700203866FFF759
:101860003FFD022D05460DD13068800140F190808A
:10187000FFF736FD401B02284FF00300F4D902B0F9
:10188000BDE8F0813068800179D5FFF729FD401B64
:1018900002284FF00300F5D9F1E700BF0020C4F2A1
:1018A000472000210160FFF71BFD054630688007D7
:1018B0007FF51FAFFFF714FD401B02284FF0030018
:1018C000F4D9DCE7316F002821F001013167316F75
:1018D00021F0040131677DD0FFF702FD054641F29A
:1018E000883700BF306F800700F18680FFF7F8FC73
:1018F000401BB842F6D9032002B0BDE8F08100BF1A
:101900003168002821F480313160316821F4802170
:1019100031607BD0FFF7E4FC054600BF30688003F0
:101920003FF5C8AEFFF7DCFC401B6428F6D9032066
:1019300002B0BDE8F08100BF7068E16900F4800288
:101940008A4221D1216A00F03F028A421CD147F627
:10195000C071626A0140B1EB821F15D1A16A4FF6D6
:10196000FF73C903994300F44032A1F580318A42E4
:101970000AD1E16A00F07060B0EB016F04D1002081
:1019800002B0BDE8F08100BF012002B0BDE8F081E7
:1019900004F11C052FCD084340EA8210D9034FF60D
:1019A000FF729143A1F5803140EA05600843706001
:1019B00001203866FFF794FC044600BF30688001C0
:1019C000DDD4FFF78DFC001B02284FF00300F5D992
:1019D00055E700BFFFF784FC054641F2883700BF9A
:1019E000306F800708D5FFF77BFC401BB8424FF0F3
:1019F0000300F5D943E700BFB8F1000F3FF57FAE14
:101A0000306C20F08050306479E600BFFFF768FC4E
:101A1000054600BF306880037FF54CAEFFF760FCE1
:101A2000401B64284FF00300F4D928E7411E002032
:101A3000B0EB116F1CBF012070474EF21002CEF2C6
:101A4000000251604EF62351CEF20001F0230B70DC
:101A500007219060116070477047000070470000D8
:101A600090F83C20012A4FF0020241D010B580F8D6
:101A70003D200268D2F804E0D2F808C00C682EF0CD
:101A80007003234340F6FF34C4F20004A2425360C3
:101A900010DCB2F1804F1ED040F20043C4F20003CC
:101AA0009A4218D040F60003C4F200039A4212D0C2
:101AB00016E000BF40F60043C4F200039A420AD089
:101AC00044F20003C4F201039A4204D00023C4F29A
:101AD00001039A4204D149682CF0800319439160B4
:101AE0000121002280F83D1080F83C20BDE8104024
:101AF00010467047002804BF0120704710B5044607
:101B000090F83D0028B9002084F83C00204600F001
:101B10001FF8022084F83D002068211D00F058FEC7
:101B2000012084F8460084F83E0084F83F0084F8E1
:101B3000400084F8410084F8420084F8430084F8AF
:101B4000440084F8450084F83D00002010BD0000EA
:101B500000680021C4F20101884218BF704780B5B7
:101B600082B00020019043F64400C4F202000168F4
:101B7000002241F0010101600068002100F0010035
:101B8000019001981820FFF72DFC1820FFF718FC92
:101B9000192000210022FFF725FC192002B0BDE822
:101BA0008040FFF70DBC000090F83D1001291CBFDC
:101BB00001207047022180F83D10006840F6FF3296
:101BC000C168C4F20002904241F00101C1600FDC23
:101BD000B0F1804F1DD040F20041C4F200018842B4
:101BE00017D040F60001C4F20001884211D017E07E
:101BF00040F60041C4F2000188420AD044F20001DC
:101C0000C4F20101884204D00021C4F201018842DB
:101C100006D1816801F00701062904BF0020704742
:101C2000016841F0010101600020704790F83C20FC
:101C3000012A4FF0020200F0C58080B580F83D20F7
:101C4000D0F800C04FF67772DCF8083023EA0202C1
:101C5000CCF808200B684F2B28DC1F2B44DD202BF1
:101C600045D0302B43D0402B40F0AE80D1F804E07B
:101C7000C968DCF82030DCF8202022F00102CCF822
:101C80002020DCF8182022F0F00242EA011123F0B3
:101C90000A0242EA0E02CCF81810CCF82020DCF838
:101CA000081041F0470121F0300180E06F2B27DD63
:101CB000B3F5005F48D0B3F5805F7AD0702B40F069
:101CC0008380D1E901E3C968DCF8082043EA0E0308
:101CD00022F47F4243EA01211143CCF80810DCF8DA
:101CE000081041F0770162E00BB1102B6CD1DCF8E9
:101CF000081021F07001194341F0070157E000BFBF
:101D0000502B35D0602B5FD1D1F804E0C968DCF8E6
:101D10002030DCF8202022F01002CCF82020DCF863
:101D2000182022F4704242EA013123F0A00242EA74
:101D30000E12CCF81810CCF82020DCF8081041F076
:101D4000670121F0100132E0D1E901E3C968DCF854
:101D5000082043EA0E0322F47F4243EA01211143A3
:101D6000CCF80810DCF8081041F480411FE000BFF7
:101D7000D1F804E0C968DCF82030DCF8202022F03B
:101D80000102CCF82020DCF8182022F0F00242EA10
:101D9000011123F00A0242EA0E02CCF81810CCF826
:101DA0002020DCF8081041F0570121F02001CCF888
:101DB00008100022012180F83D10002180F83C101D
:101DC000BDE88040104670470122F3E770470000ED
:101DD00070B504460068C5680669B10716D515F0E8
:101DE000020113D06FF002010161012121778069A6
:101DF000800703D02046FFF7E9FF05E0204600F00A
:101E00008FF8204600F08EF800202077700719D553
:101E100015F0040016D020686FF004010161022162
:101E20002177806910F4407F04D02046FFF7CEFF71
:101E300006E000BF204600F073F8204600F072F87C
:101E400000202077300717D515F0080014D020683F
:101E50006FF00801016104212177C069800703D078
:101E60002046FFF7B3FF05E0204600F059F8204672
:101E700000F058F800202077F00619D515F0100072
:101E800016D020686FF01001016108212177C06928
:101E900010F4407F04D02046FFF798FF06E000BF13
:101EA000204600F03DF8204600F03CF80020207766
:101EB000F00718BF15F0010002D1300609D412E076
:101EC00020686FF001010161204600F02DF8300616
:101ED00009D515F0800006D020686FF080010161FF
:101EE0002046FFF7B9FD700609D515F0400006D071
:101EF00020686FF040010161204600F025F8B0062F
:101F000058BF70BD15F0200008D021686FF0200286
:101F100020460A61BDE87040FFF7A0BD70BD00001B
:101F2000704700007047000040F27411C2F20001D7
:101F3000884218BF704740F20420C2F200000168D6
:101F400001310160704700007047000070470000D9
:101F500070470000B0B582B0044600680168C368ED
:101F6000426901F02F05202D03F0200506D12DB187
:101F7000204602B0BDE8B04000F0B0BC5FEA017C92
:101F80001EBF02F0010E03F4907212EB0E0243D159
:101F9000226BCD0618D5012A16D113F0100213D0EA
:101FA0000021019101680191416801910199406905
:101FB00040063BD4A08DE18DE28D002A18BF8842F7
:101FC00040F0F28102B0B0BD0A0640F1E78013F0A4
:101FD000800200F0E38094F841102129F2D1A16839
:101FE000B1F5805F03D12169002900F06382216A85
:101FF0004A1C226209784160E18C01390A04E184BB
:10200000E0D1C16821F08001C160C16841F04001A8
:10201000C16002B0B0BD00BFCA0718BF13F4807220
:1020200040F0D0804A0700F1D380D8E0E06B01682F
:1020300049688AB2002AC5D0A38D9A42C2D2E185EE
:10204000C069B0F5807F00F09D80206850E8030FE4
:10205000216820F4807041E80302DAB1206850E87A
:10206000030F216820F4807041E8030292B12068D8
:1020700050E8030F216820F4807041E803024AB160
:10208000206850E8030F216820F4807041E80302C3
:10209000002ADAD1206850E8050F216820F00100FD
:1020A00041E80502BAB3206850E8050F216820F026
:1020B000010041E8050272B3206850E8050F21686D
:1020C00020F0010041E805022AB3206850E8050F1E
:1020D000216820F0010041E80502002ADAD11AE067
:1020E000206850E8050F216820F0400041E8050213
:1020F000DAB1206850E8050F216820F0400041E87F
:10210000050292B1206850E8050F216820F04000D8
:1021100041E805024AB1206850E8050F216820F027
:10212000400041E80502002ADAD1202084F842006C
:1021300000202063206850E8030F216820F0100081
:1021400041E80302DAB1206850E8030F216820F06B
:10215000100041E8030292B1206850E8030F2168A3
:1021600020F0100041E803024AB1206850E8030F54
:10217000216820F0100041E80302002ADAD1E06B68
:10218000FEF77EFF02206063A08DE18D401A81B2D0
:10219000204602B0BDE8B040FFF7D8BE49067FF543
:1021A00011AF13F040013FF40DAFC16821F04001C1
:1021B000C1602021204684F8411002B0BDE8B04043
:1021C00000F0F0B9626C42F0010262644A0706D581
:1021D000BEF1000F03D0626C42F0020262648A0713
:1021E00006D5BEF1000F03D0626C42F004026264B7
:1021F000BCF1000F06D55EEA050203D0626C42F026
:1022000008026264626C002A3FF4DCAE890604D5E1
:102210001DB1204600F062FB20684069616C00F04F
:10222000400001F00801401800F0B680206850E836
:10223000030F216820F4907041E80302BAB32068CC
:1022400050E8030F216820F4907041E8030272B354
:10225000206850E8030F216820F4907041E80302E1
:102260002AB3206850E8030F216820F4907041E8F9
:102270000302002ADAD11AE0206850E8050F21682D
:1022800020F0010041E80502DAB1206850E8050FAE
:10229000216820F0010041E8050292B1206850E871
:1022A000050F216820F0010041E805024AB12068CD
:1022B00050E8050F216820F0010041E80502002ADE
:1022C000DAD1206B012824D1206850E8030F21685F
:1022D00020F0100041E80302DAB1206850E8030F53
:1022E000216820F0100041E8030292B1206850E814
:1022F000030F216820F0100041E803024AB1206872
:1023000050E8030F216820F0100041E80302002A82
:10231000DAD1202084F84200002020632068406940
:10232000400640F1C180206850E8050F216820F088
:10233000400041E80502DAB1206850E8050F216845
:1023400020F0400041E8050292B1206850E8050FF6
:10235000216820F0400041E805024AB1206850E8B9
:10236000050F216820F0400041E80502002ADAD17B
:10237000E06B002800F0988042F6D101C0F6000121
:102380000165FEF7C5FE00283FF41CAEE06B016D51
:1023900002B0BDE8B04008472046FFF7D9FD002055
:1023A000606402B0B0BD00BF401A00BF216851E8B0
:1023B000031F226821F4907142E80313BBB3216824
:1023C00051E8031F226821F4907142E8031373B3AC
:1023D000216851E8031F226821F4907142E8031339
:1023E0002BB3216851E8031F226821F4907142E861
:1023F0000313002BDAD11AE0216851E8051F226887
:1024000021F0010142E80513DBB1216851E8051F05
:10241000226821F0010142E8051393B1216851E8D7
:10242000051F226821F0010142E805134BB1216824
:1024300051E8051F226821F0010142E80513002B35
:10244000DAD1202184F8421000212163216851E86B
:10245000031F226821F0100142E80313DBB1216859
:1024600051E8031F226821F0100142E8031393B1E1
:10247000216851E8031F226821F0100142E803138C
:102480004BB1216851E8031F226821F0100142E896
:102490000313002BDAD1022281B22046626302B01C
:1024A000BDE8B040FFF752BD204602B0BDE8B040E5
:1024B000FFF74EBD216A31F8022B6FF35F224260B5
:1024C000216299E5002804BF0120704710B5044639
:1024D00090F8410028B9002084F84000204600F020
:1024E00021F8242084F841002068C16821F40051BB
:1024F000C160204600F072FA2068016921F4904121
:102500000161416921F02A014161C16841F4005132
:10251000C16000202021606484F8411084F84210DA
:10252000606310BD016841F20000C4F20100814205
:1025300018BF704780B586B0002143F63002019184
:10254000C4F20202536900F5704043F01003536176
:10255000536903F010030193019B0191136843F049
:1025600001031360126802F001020192019A4FF414
:10257000C06201920222CDE90221032104910721C8
:10258000059101A9FEF7D6FD252000210022FEF7C6
:1025900029FF2520FEF714FF06B0BDE880407047F4
:1025A0007047000070470000FEE70000F0B587B0FC
:1025B000002643F6300006960196C4F20200016838
:1025C00040F6000441F0800101600168C4F2020499
:1025D00001F080010191019901960168012241F009
:1025E000040101600168012701F0040101910199D2
:1025F0000196016841F00101016000680E2100F0C0
:102600000100019001982046FEF764FE022002AD11
:10261000CDE9020720462946CDE90466FEF78AFD8A
:102620000C20CDE902070320059020462946049698
:10263000FEF780FD07B0F0BD80B586B040F27410A3
:1026400000220021C2F20000C4F2010241F61F4341
:102650004FF47A7C0591CDE90311CDE90011C0E971
:102660000023C0E9021CC0E904118161FFF742FAAE
:10267000002818BFFEF700FD4FF48050029040F292
:102680007410C2F2000002A9FFF7D0FA002818BFA8
:10269000FEF7F2FC40F27410C2F200006946FFF748
:1026A000DFF9002818BFFEF7E7FC06B080BD000088
:1026B00080B540F2BC1041F20001C2F20000C4F249
:1026C000010100234FF00C0C4FF4E13280E80E00C2
:1026D000C0E90333C0E905C3C361FFF7F3FE002877
:1026E00008BF80BDBDE88040FEF7C6BCFEE7000025
:1026F000FEE700007047000070470000FEF7F6BDDF
:10270000B0B592B0002443F640000B94CDE90944E3
:10271000CDE907440594CDE90344CDE90144009493
:10272000C4F202000168022541F080510160006896
:1027300000F080500090009847F200000094C4F22E
:102740000000016841F440410160006800F440402D
:10275000009000980120099010200A9008200E9007
:102760004820CDE90F050420119006A80695CDE973
:102770000C54FEF783FF18B172B600BFFEE700BF2E
:102780000F20CDE901054FF48050CDE9040401A8E4
:1027900002210394FEF762FE10B172B6FEE700BF9D
:1027A00012B0B0BD4EF68850CEF20000016841F480
:1027B000700101607047000040F27410C2F2000026
:1027C000FFF706BB40F27410C2F20000FFF700BB37
:1027D00010B540F2FF7E0368C4F2000E40F2000C18
:1027E0007045C4F2010C1DDD40F60002C4F2000287
:1027F000904220D060451ED040F60042C4F2000254
:10280000904218D04FF6FF72C4F2000290421CDCD6
:10281000704525DCB0F1804F3AD040F20042C4F25E
:10282000000233E0B0F1804F05D040F20042C4F224
:1028300000029042E6D14A6823F0700313434FF63A
:10284000FF72C4F200029042E2DD44F2FF32C4F2B1
:102850000102904210DC60451AD044F2000213E0FD
:1028600040F60002C4F20002904211D040F600424D
:10287000C4F200020AE000BF44F60002C4F2010202
:10288000904205D044F20042C4F20102904203D1CA
:10289000CA6823F44073134323F080024B69D1F8D4
:1028A00000E08C681A4360450260C462C0F828E00A
:1028B00002D10969CCF83010012141610169C907D1
:1028C00008BF10BD016921F00101016110BD0000C8
:1028D000806B0021C185C184FFF73ABB81B090F8BD
:1028E0004210222921D183680246B3F5805F09D1C5
:1028F00052F8281F52F8183C002B63D003685B681D
:102900000AE000BF52F8281F13B90369002BF5D065
:1029100003685B6803F07F030B701168013111607D
:10292000C18D01390A04C18502D001B0704700BFD2
:102930000168CA6822F02002CA60CA6822F4807264
:10294000CA604A6922F001024A61202180F84210DF
:1029500000214163026B012A3CD10163016851E807
:10296000031F026821F0100142E80313DBB1016884
:1029700051E8031F026821F0100142E8031393B1EC
:10298000016851E8031F026821F0100142E80313B7
:102990004BB1016851E8031F026821F0100142E8C1
:1029A0000313002BDAD101680A68D20606D500228B
:1029B00000920A680092496800910099818D01B0E7
:1029C000FFF7C4BA026852686FF35F2221F8022B46
:1029D0008162A5E701B0FFF7E3BD000010B5044632
:1029E0000068D4E902C22369016921F4405111430E
:1029F0000161626943EA0C01E3691143C26819434A
:102A000049F20C639A431143C1604169A26921F400
:102A1000407141F20043114340F48062C4F201036B
:102A20009A42416102D1FEF7DFFD01E0FEF7C8FDE9
:102A3000E16963681922B1F5004FA0FB020123D1BF
:102A40005A00DB0FFDF73AFC48F21F51C5F2EB11BB
:102A5000A0FB01235A094FF69C73C0F6FF7303F1E4
:102A6000805302FB0300322303EBC000A0FB0101F3
:102A70004FF4F87000EA111000EB0210C1F342119C
:102A800008442168886010BD9A009B0FFDF716FC72
:102A900048F21F51C5F2EB11A0FB01235A094FF672
:102AA0009C73C0F6FF7302FB0300322303EB00109C
:102AB000A0FB0101F02000EA511000EB0210C1F36D
:102AC000431108442168886010BD000040F2BC102A
:102AD000C2F20000FFF73EBAFEE70000FEF714FC6A
:102AE000FFF70EFEFFF762FDFFF7A6FDFFF7E0FD23
:102AF00040F27410C2F20000FFF756F801A0002166
:102B0000FDF754FC256400008A68002A02DC0022DC
:102B1000FDF73ABE521E8A604A68C0B2531C4B6031
:102B200010707047F1EE100A4FF6FF71C0F2C0311D
:102B300020EA010040F04070E1EE100A70473A745C
:102B400074003A7474003A747400000000000000CD
:102B5000000001020304060708090000000001024A
:102B600003040000882B000800000020180000006B
:102B7000FC010008A02B000818000020F807000046
:102B80001C0200080000000000000000000000001F
:102B90000000000001000000100000000024F4000C
:040000050800019955
:00000001FF
